{
  "contractName": "Election",
  "abi": [
    {
      "inputs": [
        {
          "internalType": "uint256",
          "name": "numCandidats",
          "type": "uint256"
        }
      ],
      "payable": false,
      "stateMutability": "nonpayable",
      "type": "constructor"
    },
    {
      "constant": false,
      "inputs": [
        {
          "internalType": "address",
          "name": "Electeur",
          "type": "address"
        }
      ],
      "name": "register",
      "outputs": [],
      "payable": false,
      "stateMutability": "nonpayable",
      "type": "function"
    },
    {
      "constant": false,
      "inputs": [
        {
          "internalType": "uint256",
          "name": "toCandidat",
          "type": "uint256"
        }
      ],
      "name": "vote",
      "outputs": [],
      "payable": false,
      "stateMutability": "nonpayable",
      "type": "function"
    },
    {
      "constant": true,
      "inputs": [],
      "name": "reqWinner",
      "outputs": [
        {
          "internalType": "uint256",
          "name": "winningCandidat",
          "type": "uint256"
        }
      ],
      "payable": false,
      "stateMutability": "view",
      "type": "function"
    }
  ],
  "bytecode": "0x608060405234801561001057600080fd5b506040516105ae3803806105ae8339818101604052602081101561003357600080fd5b8101908080519060200190929190505050336000806101000a81548173ffffffffffffffffffffffffffffffffffffffff021916908373ffffffffffffffffffffffffffffffffffffffff1602179055506002600160008060009054906101000a900473ffffffffffffffffffffffffffffffffffffffff1673ffffffffffffffffffffffffffffffffffffffff1673ffffffffffffffffffffffffffffffffffffffff1681526020019081526020016000206000018190555060008090505b818160ff161015610151576002604051806020016040528060008152509080600181540180825580915050906001820390600052602060002001600090919290919091506000820151816000015550505080806001019150506100f3565b505061044c806101626000396000f3fe608060405234801561001057600080fd5b50600436106100415760003560e01c80630121b93f146100465780634420e48614610074578063508b30c9146100b8575b600080fd5b6100726004803603602081101561005c57600080fd5b81019080803590602001909291905050506100d6565b005b6100b66004803603602081101561008a57600080fd5b81019080803573ffffffffffffffffffffffffffffffffffffffff16906020019092919050505061027c565b005b6100c061037a565b6040518082815260200191505060405180910390f35b6000600160003373ffffffffffffffffffffffffffffffffffffffff1673ffffffffffffffffffffffffffffffffffffffff168152602001908152602001600020600001541161018e576040517f08c379a00000000000000000000000000000000000000000000000000000000081526004018080602001828103825260198152602001807f4e6f742061205265676973746572656420456c6563746575720000000000000081525060200191505060405180910390fd5b6101966103f4565b600160003373ffffffffffffffffffffffffffffffffffffffff1673ffffffffffffffffffffffffffffffffffffffff168152602001908152602001600020604051806060016040529081600082015481526020016001820160009054906101000a900460ff16151515158152602001600282015481525050905080602001511561022057600080fd5b600280549050821061023157600080fd5b60018160200190151590811515815250508181604001818152505080600001516002838154811061025e57fe5b90600052602060002001600001600082825401925050819055505050565b6000809054906101000a900473ffffffffffffffffffffffffffffffffffffffff1673ffffffffffffffffffffffffffffffffffffffff163373ffffffffffffffffffffffffffffffffffffffff16146102d557600080fd5b60018060008373ffffffffffffffffffffffffffffffffffffffff1673ffffffffffffffffffffffffffffffffffffffff168152602001908152602001600020600001819055506000600160008373ffffffffffffffffffffffffffffffffffffffff1673ffffffffffffffffffffffffffffffffffffffff16815260200190815260200160002060010160006101000a81548160ff02191690831515021790555050565b6000806000905060008090505b6002805490508110156103e45781600282815481106103a257fe5b906000526020600020016000015411156103d757600281815481106103c357fe5b906000526020600020016000015491508092505b8080600101915050610387565b5060038110156103f057fe5b5090565b60405180606001604052806000815260200160001515815260200160008152509056fea265627a7a723158206d0e71bd72cbfa381e5dcc78fda0486c20244eacf13b10e55dbf7f18965aadb064736f6c63430005100032",
  "source": "pragma solidity >=0.4.22 <=0.6.0;\r\ncontract Election {\r\n\r\n    struct Electeur {                     \r\n        uint weight;\r\n        bool voted;\r\n        uint vote;\r\n    }\r\n    struct Candidat {                  \r\n        uint voteCount;\r\n    }\r\n\r\n    address scrutateur;\r\n    mapping(address => Electeur) Electeurs;  \r\n    Candidat[] Candidats;\r\n\r\n    \r\n       //modifiers\r\n   \r\n    modifier onlyChair() \r\n     {require(msg.sender == scrutateur);\r\n      _;\r\n     }\r\n     \r\n     modifier validElecteur()\r\n    {\r\n        require(Electeurs[msg.sender].weight > 0, \"Not a Registered Electeur\");\r\n        _;\r\n    }\r\n\r\n    constructor (uint numCandidats) public  {\r\n        scrutateur = msg.sender;\r\n        Electeurs[scrutateur].weight = 2; // weight 2 for testing purposes\r\n        //Candidats.length = numCandidats; -- before 0.6.0\r\n        for (uint8 prop = 0; prop < numCandidats; prop ++)\r\n            Candidats.push(Candidat(0));\r\n        \r\n    }\r\n    \r\n     \r\n    function register(address Electeur) public  onlyChair {\r\n        \r\n        Electeurs[Electeur].weight = 1;\r\n        Electeurs[Electeur].voted = false;\r\n    }\r\n\r\n   \r\n    function vote(uint toCandidat) public  validElecteur{\r\n      \r\n        Electeur memory sender = Electeurs[msg.sender];\r\n        \r\n        require (!sender.voted); \r\n        require (toCandidat < Candidats.length); \r\n        \r\n        sender.voted = true;\r\n        sender.vote = toCandidat;   \r\n        Candidats[toCandidat].voteCount += sender.weight;\r\n    }\r\n\r\n    function reqWinner() public view returns (uint winningCandidat) {\r\n       \r\n        uint winningVoteCount = 0;\r\n        for (uint prop = 0; prop < Candidats.length; prop++) \r\n            if (Candidats[prop].voteCount > winningVoteCount) {\r\n                winningVoteCount = Candidats[prop].voteCount;\r\n                winningCandidat = prop;\r\n            }\r\n       assert(winningVoteCount>=3);\r\n    }\r\n}",
  "sourcePath": "C:\\Workspace\\Repo\\Smart Contract Solidity\\VoteElection\\Election_Contract\\contracts\\Election.sol",
  "compiler": {
    "name": "solc",
    "version": "0.5.16+commit.9c3226ce.Emscripten.clang"
  },
  "schemaVersion": "3.4.5",
  "updatedAt": "2022-03-30T19:15:48.674Z",
  "networkType": "ethereum",
  "devdoc": {
    "methods": {}
  },
  "userdoc": {
    "methods": {}
  }
}